{"dataDecoded": {
    "method": "transfer",
    "parameters": [
      {
        "name": "to",
        "type": "address",
        "value": "0x6A9Ee871c0Bd10323121b1F0e9C7212c48695d99"
      },
      {
        "name": "value",
        "type": "uint256",
        "value": "100000000000000000000000"
      }
    ]
  }
}

{ "from": "0x179a8BDDa1AB5fEF17AAF6Ff0FFCb2875925668F",
  "to": "0x2F5213757a486C4DCDB4708AE53b834b9445bbA7",
  "data": "0xa9059cbb0000000000000000000000006a9ee871c0bd10323121b1f0e9c7212c48695d9900000000000000000000000000000000000000000000152d02c7e14af6800000"
}